:1000000028C04CC051C14AC049C004C147C046C005
:1000100045C044C043C042C041C040C03FC00000D2
:10002000000037000000000036000000000038002B
:10003000020202020202020202020102040810206D
:100040002004100801020000040000000000E80283
:10005000400311241FBECFE5D2E0DEBFCDBF10E0CC
:10006000A0E6B0E0E2E6F9E002C005900D92AE37FE
:10007000B107D9F720E0AEE7B0E001C01D92A23A87
:10008000B207E1F710E0C8E2D0E003C02197FE011B
:100090002AD3C732D107D1F711D157C4B1CF82309B
:1000A00089F018F4813051F00895833019F08430CC
:1000B00009F008958CB58F7D8CBD08958AB58F7732
:1000C0008ABD08958AB58F7DFBCFCF93DF93282F0C
:1000D00030E0F901EC5BFF4F8491F901E65CFF4FE2
:1000E000D491F901E05DFF4FC491CC2389F08111D7
:1000F000D6DFEC2FF0E0EE0FFF1FE65DFF4FA5917E
:10010000B4918FB7F894EC91D095DE23DC938FBF38
:10011000DF91CF910895CF93DF93282F30E0F9013D
:10012000EC5BFF4F8491F901E65CFF4FD491F9013C
:10013000E05DFF4FC491CC2399F08111B0DFEC2F2B
:10014000F0E0EE0FFF1FEC5DFF4FA591B491EC9135
:10015000ED2381E090E009F480E0DF91CF910895F4
:1001600080E090E0FACFCF93DF9390E0FC01E65C73
:10017000FF4F2491805D9F4FFC0184918823D1F033
:1001800090E0880F991FFC01E25EFF4FA591B491AA
:10019000FC01E65DFF4FC591D49161110EC09FB780
:1001A000F8948C91E22FE0958E238C932881E223A2
:1001B000E8839FBFDF91CF9108958FB7F894EC91BA
:1001C000E22BEC938FBFF6CF3FB7F89480919A0063
:1001D00090919B00A0919C00B0919D0022B708B621
:1001E00001FE05C02F3F19F00196A11DB11D3FBFB3
:1001F000BA2FA92F982F8827BC01CD01620F711D3E
:10020000811D911D43E0660F771F881F991F4A9536
:10021000D1F708951F920F920FB60F9211242F93CA
:100220003F938F939F93AF93BF938091960090914C
:100230009700A0919800B09199003091950026E028
:10024000230F2D3758F50296A11DB11D209395005F
:100250008093960090939700A0939800B093990094
:1002600080919A0090919B00A0919C00B0919D007C
:100270000196A11DB11D80939A0090939B00A093BD
:100280009C00B0939D00BF91AF919F918F913F9142
:100290002F910F900FBE0F901F90189529E8230FF4
:1002A0000396A11DB11DD2CF1F920F920FB60F92D0
:1002B00011240F900FBE0F901F901895CF93DF93CE
:1002C00000D000D000D01F92CDB7DEB778948AB5A9
:1002D00082608ABD8AB581608ABD83B7826083BF30
:1002E00083B7816083BF89B7826089BF80B782602E
:1002F00080BF80B7816080BF329A319A3098379A38
:100300008CB580648CBD80E830E020E00FB6F894B6
:1003100086BD26BD0FBE60E082E025DF60E083E0A1
:1003200022DF60E084E01FDF61E080E01CDF80917D
:1003300085009091860097FD05C061E014DF8091F3
:100340008500C3DE81E0809380004091830050915E
:10035000840070E060E08091880090918900EED286
:1003600060918700653611F1009188001091890035
:10037000615030E020E029F070E08FEF94E69FD1EB
:100380009B01F8014091830050918400CF01801BB4
:10039000910B8417950738F4808190E0B9017ED1E4
:1003A00090833196EFCF85E68093870000E010E0E0
:1003B00082E0B1DE7C0184E0AEDE6C0183E0ABDE86
:1003C0002091810030918200E216F30608F04AC0C5
:1003D000CC0CDD1C8C299D2966E070E05FD1DC012E
:1003E000AA59BF4F1496CD90DC9015971296AD90F8
:1003F000BC9013978D919C9120918700F82F222318
:1004000079F030E09927B90149D1F92FC501992731
:10041000B90144D1A92EC6019927B9013FD1C92EEE
:10042000A0918D00209188003091890080918A00F0
:10043000A813C2C0C70163E070E030D1820F931FE0
:10044000A0918A00A80FB92FB11DFC93A0918B0039
:10045000A80FB92FB11DAC9220918C00820F911D75
:10046000FC01C0828091880090918900892B09F459
:100470009DC0AADEC0908E00D0908F00E0909000CA
:10048000F09091006C157D058E059F0540F46093FA
:100490008E0070938F008093900090939100C09095
:1004A0008E00D0908F00E0909000F09091006C1939
:1004B0007D098E099F096C32714081059105C8F252
:1004C000F89480918300909184009A838983A0910D
:1004D0008800B0918900FD0131968C918F831B8239
:1004E00098B380919400982B9E8398B3809589232C
:1004F0008D838D818C838F8187FF02C08E818C8359
:100500005E816D814F813C812B8189819A8158BBAD
:10051000262F38BB00C046FD252F68BB00C058BB46
:10052000362F28BB00C045FD352F68BB00C058BB27
:10053000262F38BB00C044FD252F68BB00C058BB28
:10054000362F28BB00C043FD352F68BB00C058BB09
:10055000262F38BB00C042FD252F68BB00C058BB0A
:10056000362F28BB00C041FD352F68BB00C058BBEB
:10057000262F38BB00C040FD252F68BB019758BB14
:10058000362F28BB419147FD352F68BB01F64F83BD
:100590003C832B839A838983789416DE60938E0044
:1005A00070938F0080939000909391000115110536
:1005B00009F4FECE25DDFCCEC701880F991F880FF8
:1005C000991F820F931FA80FB92FB11D1C9238CF0E
:1005D000109280001092870010928E0010928F006F
:1005E000109290001092910081E080938D00809392
:1005F0008A0010928B0082E080938C0086E090E06D
:10060000909384008093830074D0909389008093AA
:100610008800009761F126E0FC0111922A95E9F724
:1006200082E090E090938200809381001092860097
:100630001092850080918000882329F061E080E09D
:1006400092DD80E042DDE0E3F0E0E491F0E0EE0FE7
:10065000FF1FE65DFF4F85919491909393008093E7
:100660009200EAE3F0E0E491E093940008951092A0
:100670008400109283001092820010928100D6CFE5
:100680008091880090918900D0D0809185009091D0
:10069000860097FD02C060E066CD089500245527CE
:1006A00004C0080E591F880F991F009729F07695EE
:1006B0006795B8F37105B9F7802D952F0895AA1B9A
:1006C000BB1B51E107C0AA1FBB1FA617B70710F03D
:1006D000A61BB70B881F991F5A95A9F7809590956F
:1006E000BC01CD010895EE0FFF1F0590F491E02DA0
:1006F00009940F931F93CF93DF938230910510F4E9
:1007000082E090E0E091A000F091A10030E020E0D4
:10071000B0E0A0E0309799F42115310509F44AC002
:10072000281B390B24303105D8F58A819B8161154E
:10073000710589F1FB0193838283FE0111C0408121
:1007400051810281138148175907E0F04817590772
:1007500099F4109761F012960C93129713961C93CC
:100760003296CF01DF91CF911F910F9108950093A1
:10077000A0001093A100F4CF2115310551F04217CC
:10078000530738F0A901DB019A01BD01DF01F8012F
:10079000C1CFEF01F9CF9093A1008093A000CDCFFE
:1007A000FE01E20FF31F81939193225031093983A7
:1007B0002883D7CF20919E0030919F00232B41F4B6
:1007C000209162003091630030939F0020939E003F
:1007D00020916000309161002115310541F42DB761
:1007E0003EB74091640050916500241B350BE091A9
:1007F0009E00F0919F00E217F307A0F42E1B3F0B21
:100800002817390778F0AC014E5F5F4F2417350782
:1008100048F04E0F5F1F50939F0040939E008193BE
:1008200091939FCFF0E0E0E09CCFCF93DF930097D0
:10083000E9F0FC01329713821282A091A000B091DE
:10084000A100ED0130E020E01097A1F4208131817A
:10085000820F931F20919E0030919F002817390727
:1008600009F061C0F0939F00E0939E00DF91CF916B
:100870000895EA01CE17DF07E8F54A815B819E0102
:1008800041155105B1F7E901FB83EA83499159917B
:10089000C40FD51FEC17FD0761F48081918102968A
:1008A000840F951FE90199838883828193819B83BB
:1008B0008A83F0E0E0E012968D919C911397009767
:1008C000B9F52D913C911197CD010296820F931F9E
:1008D00020919E0030919F002817390739F63097F4
:1008E00051F51092A1001092A000B0939F00A09328
:1008F0009E00BCCFD383C28340815181840F951F5A
:10090000C817D90761F44E5F5F4F88819981480FFE
:10091000591F518340838A819B8193838283211550
:10092000310509F0B0CFF093A100E093A0009ECF75
:10093000FD01DC01C0CF13821282D7CFDC0101C0E0
:100940006D9341505040E0F7089510E0C8E2D0E0C8
:1009500003C0FE01C8DE2196C932D107D1F7F89451
:02096000FFCFC7
:100962000000A2008000000000000000FF00000064
:0E09720000000000FF000000FF00A5000000D4
:00000001FF
