:1000000028C04CC07EC14AC049C031C147C046C0AB
:1000100045C044C043C042C041C040C03FC00000D2
:10002000000037000000000036000000000038002B
:10003000020202020202020202020102040810206D
:100040002004100801020000040000000000270343
:100050007F0311241FBECFE5D2E0DEBFCDBF10E08D
:10006000A0E6B0E0E0EEF9E002C005900D92AE37F8
:10007000B107D9F720E0AEE7B0E001C01D92A23A87
:10008000B207E1F710E0C8E2D0E003C02197FE011B
:1000900069D3C732D107D1F73ED196C4B1CFE09131
:1000A0009600209191003091920040919300E413CA
:1000B00018C063E070E031D3820F931FE09193008A
:1000C000E80FF92FF11D1082E0919400E80FF92F4D
:1000D000F11D108220919500820F911DFC0110826C
:1000E0000895880F991F880F991F820F931FE80F9B
:1000F000F92FF11D1082E2CF823089F018F481309F
:1001000051F00895833019F0843009F008958CB5CA
:100110008F7D8CBD08958AB58F778ABD08958AB585
:100120008F7DFBCFCF93DF93282F30E0F901EC5B7D
:10013000FF4F8491F901E65CFF4FD491F901E05D36
:10014000FF4FC491CC2389F08111D6DFEC2FF0E072
:10015000EE0FFF1FE65DFF4FA591B4918FB7F894A6
:10016000EC91D095DE23DC938FBFDF91CF91089582
:10017000CF93DF93282F30E0F901EC5BFF4F8491A0
:10018000F901E65CFF4FD491F901E05DFF4FC491A6
:10019000CC2399F08111B0DFEC2FF0E0EE0FFF1FC0
:1001A000EC5DFF4FA591B491EC91ED2381E090E0DF
:1001B00009F480E0DF91CF91089580E090E0FACFDC
:1001C000CF93DF9390E0FC01E65CFF4F2491805DCC
:1001D0009F4FFC0184918823D1F090E0880F991FF4
:1001E000FC01E25EFF4FA591B491FC01E65DFF4F7B
:1001F000C591D49161110EC09FB7F8948C91E22FF4
:10020000E0958E238C932881E223E8839FBFDF91C2
:10021000CF9108958FB7F894EC91E22BEC938FBFB8
:10022000F6CF3FB7F8948091850090918600A09119
:100230008700B091880022B708B601FE05C02F3FA5
:1002400019F00196A11DB11D3FBFBA2FA92F982FFC
:100250008827BC01CD01620F711D811D911D43E0F6
:10026000660F771F881F991F4A95D1F708951F922F
:100270000F920FB60F9211242F933F938F939F935A
:10028000AF93BF938091810090918200A0918300F1
:10029000B09184003091800026E0230F2D3758F56F
:1002A0000296A11DB11D2093800080938100909340
:1002B0008200A0938300B093840080918500909188
:1002C0008600A0918700B09188000196A11DB11D04
:1002D0008093850090938600A0938700B093880058
:1002E000BF91AF919F918F913F912F910F900FBE32
:1002F0000F901F90189529E8230F0396A11DB11D9B
:10030000D2CF1F920F920FB60F9211240F900FBEF3
:100310000F901F901895CF93DF9300D000D000D09E
:100320001F92CDB7DEB778948AB582608ABD8AB550
:1003300081608ABD83B7826083BF83B7816083BFDA
:1003400089B7826089BF80B7826080BF80B78160D3
:1003500080BF329A319A3098379A8CB580648CBDC0
:1003600080E830E020E00FB6F89486BD26BD0FBED1
:1003700060E081E025DF60E082E022DF60E083E092
:100380001FDF61E080E01CDF80918E0090918F0084
:1003900097FD05C061E014DF80918E00C3DE81E02F
:1003A0008093890040918C0050918D0070E060E056
:1003B000809191009091920000D380918A00909159
:1003C0008B00892B19F090E080E069DE80918A0033
:1003D00090918B00029718F081E090E060DE6091D0
:1003E0009000653611F100919100109192006150DA
:1003F00030E020E029F070E08FEF94E69FD19B0180
:10040000F80140918C0050918D00CF01801B910B21
:100410008417950738F4808190E0B9017ED19083EC
:100420003196EFCF85E68093900000E010E081E008
:100430009FDE7C0183E09CDE6C0182E099DE2091EE
:100440008A0030918B00E216F30608F04AC0CC0C0B
:10045000DD1C8C299D2966E070E05FD1DC01AA5982
:10046000BF4F1496CD90DC9015971296AD90BC902E
:1004700013978D919C9120919000F82F222379F071
:1004800030E09927B90149D1F92FC5019927B90160
:1004900044D1A92EC6019927B9013FD1C92EA091F7
:1004A0009600209191003091920080919300A813C2
:1004B000C2C0C70163E070E030D1820F931FA091EA
:1004C0009300A80FB92FB11DFC93A0919400A80F21
:1004D000B92FB11DAC9220919500820F911DFC01A6
:1004E000C0828091910090919200892B09F49DC067
:1004F00098DEC0909700D0909800E0909900F0901E
:100500009A006C157D058E059F0540F46093970059
:10051000709398008093990090939A00C0909700F0
:10052000D0909800E0909900F0909A006C197D09A5
:100530008E099F096C32714081059105C8F2F894CB
:1005400080918C0090918D009A838983A091910075
:10055000B0919200FD0131968C918F831B8298B3EC
:1005600080919D00982B9E8398B3809589238D83DD
:100570008D818C838F8187FF02C08E818C835E8109
:100580006D814F813C812B8189819A8158BB262FB7
:1005900038BB00C046FD252F68BB00C058BB362FB6
:1005A00028BB00C045FD352F68BB00C058BB262FB7
:1005B00038BB00C044FD252F68BB00C058BB362F98
:1005C00028BB00C043FD352F68BB00C058BB262F99
:1005D00038BB00C042FD252F68BB00C058BB362F7A
:1005E00028BB00C041FD352F68BB00C058BB262F7B
:1005F00038BB00C040FD252F68BB019758BB362F84
:1006000028BB419147FD352F68BB01F64F833C83E2
:100610002B839A838983789404DE60939700709388
:1006200098008093990090939A000115110509F4A0
:10063000FECEE6DCFCCEC701880F991F880F991FFC
:10064000820F931FA80FB92FB11D1C9238CF1092A3
:1006500089001092900010929700109298001092CA
:10066000990010929A0081E0809396008093930005
:100670001092940082E08093950086E090E0909341
:100680008D0080938C0074D09093920080939100A1
:10069000009761F126E0FC0111922A95E9F782E0CA
:1006A00090E090938B0080938A0010928F001092BC
:1006B0008E0080918900882329F061E080E080DD50
:1006C00080E030DDE0E3F0E0E491F0E0EE0FFF1FCA
:1006D000E65DFF4F8591949190939C0080939B00E1
:1006E000EAE3F0E0E491E0939D00089510928D001C
:1006F00010928C0010928B0010928A00D6CF8091BD
:10070000910090919200D0D080918E0090918F00B6
:1007100097FD02C060E054CD08950024552704C021
:10072000080E591F880F991F009729F07695679535
:10073000B8F37105B9F7802D952F0895AA1BBB1B3F
:1007400051E107C0AA1FBB1FA617B70710F0A61BD1
:10075000B70B881F991F5A95A9F780959095BC01F2
:10076000CD010895EE0FFF1F0590F491E02D09943F
:100770000F931F93CF93DF938230910510F482E0A3
:1007800090E0E091A000F091A10030E020E0B0E026
:10079000A0E0309799F42115310509F44AC0281BCF
:1007A000390B24303105D8F58A819B81611571059B
:1007B00089F1FB0193838283FE0111C04081518145
:1007C0000281138148175907E0F04817590799F437
:1007D000109761F012960C93129713961C93329611
:1007E000CF01DF91CF911F910F9108950093A00049
:1007F0001093A100F4CF2115310551F04217530792
:1008000038F0A901DB019A01BD01DF01F801C1CF78
:10081000EF01F9CF9093A1008093A000CDCFFE010E
:10082000E20FF31F8193919322503109398328837A
:10083000D7CF20919E0030919F00232B41F420912F
:1008400062003091630030939F0020939E002091BE
:100850006000309161002115310541F42DB73EB79C
:100860004091640050916500241B350BE0919E007F
:10087000F0919F00E217F307A0F42E1B3F0B2817FF
:10088000390778F0AC014E5F5F4F2417350748F009
:100890004E0F5F1F50939F0040939E008193919352
:1008A0009FCFF0E0E0E09CCFCF93DF930097E9F09B
:1008B000FC01329713821282A091A000B091A10096
:1008C000ED0130E020E01097A1F420813181820F0A
:1008D000931F20919E0030919F002817390709F03F
:1008E00061C0F0939F00E0939E00DF91CF91089547
:1008F000EA01CE17DF07E8F54A815B819E014115C9
:100900005105B1F7E901FB83EA8349915991C40F7D
:10091000D51FEC17FD0761F4808191810296840F49
:10092000951FE90199838883828193819B838A83C0
:10093000F0E0E0E012968D919C9113970097B9F545
:100940002D913C911197CD010296820F931F20911A
:100950009E0030919F002817390739F6309751F5DE
:100960001092A1001092A000B0939F00A0939E004F
:10097000BCCFD383C28340815181840F951FC81798
:10098000D90761F44E5F5F4F88819981480F591FE5
:10099000518340838A819B81938382832115310512
:1009A00009F0B0CFF093A100E093A0009ECFFD012D
:1009B000DC01C0CF13821282D7CFDC0101C06D935E
:1009C00041505040E0F7089510E0C8E2D0E003C085
:1009D000FE01C8DE2196C932D107D1F7F894FFCFC6
:1009E0000000A2008000000000000000FF000000E6
:0E09F00000000000FF000000FF00A500000056
:00000001FF
